:100000000C9434000C9449000C9449000C94490061
:100010000C9449000C9449000C9449000C9449003C
:100020000C9449000C9449000C9449000C9449002C
:100030000C9449000C9449000C9449000C9449001C
:100040000C9449000C9449000C9449000C9449000C
:100050000C9449000C9449000C9449000C944900FC
:100060000C9449000C94490011241FBECFEFD8E036
:10007000DEBFCDBF11E0A0E0B1E0EEEDF0E002C0E8
:1000800005900D92AE30B107D9F70E9457000C943D
:100090006D000C9400008CE284B984E085B981E5A0
:1000A0008CBD08958EBD0DB407FEFDCF08950E944E
:1000B0004B002A98C1E0D1E088E40E945200899167
:1000C0008111FBCF2A9A2FEF81EE94E021508040DE
:0E00D0009040E1F700C00000ECCFF894FFCFA5
:0E00DE0048656C6C6F2C204E69636B210A0024
:00000001FF
